:0400000080313028F3
:100008007E14803120007F08F7000B1F2B28210069
:10001800921D17282000921D17287D088A007C0849
:100028000A0080312B282100911D23282000911DD2
:1000380023287D088A007C080A0080312B282100AB
:10004800911C2B282000911C2B288131FB2177083B
:100058002000FF007E10090080313228F801F901E4
:10006800FA01FB01FC01FD0120308400003085000D
:100078001E308231A0227E1020008231DF2A823198
:10008800CA228031003A031D53286F288231FF228B
:1000980008008231FB2208008231F3220800200088
:1000A8002F08F1007108C7000630203E860087013E
:1000B800413F8A00403F0A008031013A0319502825
:1000C800033A03194A28013A03194D28073A031934
:1000D80050285028080020003C101730203E860089
:1000E8008701403F84008501810A00088231DA22B5
:1000F800803101302000B8020030B93B380839049B
:10010800031D8828063089280330F2000030F300E8
:1001180072080800833114238031F000200037086A
:1001280086008701700881000130F0007008B70769
:100138000130B8020030B93B380839040319A8283F
:100148008331032305300800BC15B0288231E7222B
:1001580008008231EB22080020002C08F00070080B
:10016800C70021088A0020080A008031013A0319D3
:10017800AD28033A0319AA28013A0319AA28073A0D
:100188000319AD28AD28080083310E2380312000E3
:100198003C1CD9288231CA228031003A0319D92857
:1001A8000F30F40074082000BA0020003A08F40068
:1001B800F501F435F50D8030740784008130753D04
:1001C8008500013F8A00003F0A008031F60076086A
:1001D8002000BA000800083023009F0090309D00DE
:1001E80024309E00A0309B0001309C00003020008D
:1001F800C6000030C7008231B822803100302000AC
:10020800C6000030C7008231B222803100302000A1
:10021800C6000030C7008231BE222000BD010800A0
:100228002000BC1521298231F722080083311123CF
:10023800033008008231F322080020002C08F00067
:100248007008C70021088A0020080A008131013A95
:1002580003191E29033A03191729013A0319172903
:10026800073A03191A291E290800F40070087104B6
:1002780003194F297435203E860087017008C03F56
:100288007108C13F7208F30074082C3E860087018C
:100298007308810008007435203E860087012230EB
:1002A800C03F0330C13F74082C3E8600870181019E
:1002B800080020003C100230F0007008BB006A29DA
:1002C8008231F72208008231F322080020002E082C
:1002D800F0007008C7000430203E86008701413FC7
:1002E8008A00403F0A008131023A03196429013A21
:1002F8000319642967290800D5340234913402347B
:1003080099340234433400348E340034C434023413
:1003180014340134FF340234FB340234F734023429
:10032800F3340234EF340234EB340234E734023469
:10033800D03402345D34013422008C018D018E01E9
:100348003F3021008C0070308D00FF308E00CF30A0
:1003580023008E008D0117308C0024008D018C0144
:100368002100951722009D010800823177228131F2
:100378008131A02181318231AC2281318231E32265
:1003880081318231892281318231802281318131EA
:10039800E92181318031EF200800200047088600DC
:1003A8008701403FF000413FF1004708023E8600C8
:1003B800870101088231512281310030F500F600B1
:1003C800F70182315F2202300800F93020009B00DB
:1003D8009A0191102100911424302000C6000330A6
:1003E800C7008231A622063020009C0008002000A9
:1003F80091100130FA070030FB3D00307B020530D8
:1004080003197A02031C080082316C22FA01FB01ED
:1004180008000130F0000030F10020004708823168
:10042800512282310030F500F600F70182315F2257
:10043800043008000230F0000030F10020004708C6
:100448008231512282310030F500F600F701823105
:100458005F22023008000130F0000030F100200077
:1004680047088231512282310030F500F600F70149
:1004780082315F22023008000230F0000030F100C3
:10048800200047088231512282310030F500F60001
:10049800F70182315F2204300800F3002000BC1D00
:1004A80008007308F2007208B7007108B9007008F4
:1004B800B800BC1108007608F1007508F00077084C
:1004C8002000C6004608F2000030813139210800BA
:1004D80020003E083F04031908003F088A003E0830
:1004E8000A00823108002400940108309500960122
:1004F8002730920095120800013021009D004030FD
:100508009E009F019B019C01080080302C009300F5
:100518007C309200C0309100080020003C14031485
:10052800360D8231DA220530080020003C143635B9
:100538008231DA2203300800640080010131890B1E
:10054800A12A003420004708BF004608BE00080062
:100558007830210099002200960108002000470801
:10056800C3004608C200080020004708C500460826
:10057800C400080020004708C1004608C000080061
:1005880020003C1083311723043008002400160E85
:10059800890C890C013908002000BC10BB010E3001
:1005A80008002000BC10BB010E300800F0007008E5
:1005B8002400910008008131B9218231E22A1630E5
:1005C8002100970008008331072309300800833190
:1005D80007230A30080083310323053008008331DC
:1005E8001A230030080083311D23013008008331AD
:1005F8001D230230080083311D2301300800240028
:100608009612161608002400961616160800803151
:10061800C82008002000911108002000911508004A
:100628002400110808002400961508002400161557
:10063800080024009614080005300800013008005E
:020648000800A8
:020000040001F9
:04000E00E4FFFFFF0D
:00000001FF
