:020000040000FA
:04000000803119280A
:100008007E1480310B1F09280A2817282100911C0B
:100018000E280F2817282000911C132814281728A9
:100028008231232280317E10090080311B288231E1
:10003800BC228031FB00F601F701F801F901FA0151
:1000480020308400003085000E308231A0228031BB
:100058007E1020008131EA2920002D08B400B50166
:100068003408AE003508AF000330B0000030B100EE
:100078008131CA21803120002F0885002E08840094
:100088008E3084078230853D0008390503194D28D4
:100098004E286A282D08B400B5013408AE0035088A
:1000A800AF000330B0000030B1008131CA21803187
:1000B80020002F0885002E0884008C3084078230A9
:1000C800853D013F8A00003F0A0080310130200051
:1000D800B4003408AD0704302D02031C74287528B9
:1000E800B428B801AD018030390603197C287D2871
:1000F800A72840303906031982288328A7282030EA
:100108003906031988288928A728103039060319C1
:100118008E288F28A728083039060319942895288F
:10012800A7280430390603199A289B28A7280230E3
:1001380039060319A028A128A72839030319A528D7
:10014800A628A728A6283936B4003408B9003908E3
:10015800031DAF28B028B4288030B4003408B90093
:1001680008000A290130F6070030F73D0030770211
:10017800653003197602031CC228C328C828023038
:10018800F4007408FB001D2908302000A007003087
:10019800A13D1D290130F6070030F73D01307702F7
:1001A8002C3003197602031CDA28DB28E3280330F5
:1001B800F4007408FB002000A001A1011D29200003
:1001C800200821040319E928EA281D290030210202
:1001D800053003192002031CF228F328DF28043015
:1001E800A0020030A13B1D290130F6070030F73D81
:1001F80001307702913003197602031C042905297E
:100208001D29F601F701FB01FB0A1D297B08F400F3
:10021800F5017508003A031912291D297408013AD5
:100228000319B628033A0319CE28013A0319F82806
:100238001D2920002108F1002008F0008231392210
:100248008031080020001708AE002E08B2001608FA
:10025800AE002E08B10032081706031934293529D3
:100268003D291708AE002E08B2001608AE002E0869
:10027800B1003208AE00AF012E08AF00AE01003069
:100288002E05F800FF302F05F90078083104F80032
:100298007908F90024087802AE002508793BAF00F8
:1002A80003302F02E83003192E02031C5C295D2954
:1002B8008C292408E83EA4000330253DA500013020
:1002C800AA070030AB3D03302B02E83003192A029D
:1002D800031C6F2970297629AA01AB010130A807F0
:1002E8000030A93D0130A6070030A73D00302702A5
:1002F8000A3003192602031C822983298C2938080D
:10030800031D872988298C29A601A701B801B80AE5
:1003180008008231B22281312000AD018030AE0068
:100328002E08B900B801B80AAA01AB01A801A901B1
:10033800A601A7011708AE002E08B2001608AE00E5
:100348002E08B100320817060319AB29AC29B429C5
:100358001708AE002E08B2001608AE002E08B1002D
:100368003208AE00AF012E08AF00AE0100302E05F6
:10037800F800FF302F05F90078083104F8007908F3
:10038800F9007908A5007808A40008002000B20147
:10039800B3012E1CD029D129D5293008B20731083C
:1003A800B33D0130B035B10D890BD6290130AF36D8
:1003B800AE0C890BDB292E082F04031DE429E5293F
:1003C800CD293308AF003208AE000800823162221E
:1003D800813181318D218131B5302000AE0000306E
:1003E800AF008231A62281318B170B17813126216C
:1003F8008131200038080319022A032AFA2980319A
:1004080030208131FA298031192822008C018D0190
:100418008E013F3021008C00F0308D00D8308E00E6
:10042800C03023008E0030308D0017308C0024003F
:100438008D018C012100951722009D0108002000E4
:1004480091100130A2070030A33D0030230205308F
:1004580003192202031C312A322A382A82317F22C8
:1004680082312000A201A30108007108F30070087E
:10047800F200F336F20CF336F20C72082C009200FC
:1004880070080339F2000530F235FF3E031D482A93
:10049800723591000800F93020009B009A019110F4
:1004A80021009114BD302000AE000230AF0082312F
:1004B800A6228231063020009C00080082310922E1
:1004C80082318231AC2282318231B822823182314A
:1004D8009822823182314F22823108000310220093
:1004E8000E1D03140318792A7C2A22000E157E2A71
:1004F80022000E1108002000360837040319852A47
:10050800862A8B2A37088A0036080A0082310800B2
:1005180072340234FF3400340034003400340034C0
:100528000034003400340034C0302C0093007C3098
:100538009200C03091000800640080010131890BED
:10054800A12A003420002F08B7002E08B6000800A2
:1005580078302100990022009601080020009701B8
:1005680096012130980008001630210097000800F5
:040578000134080042
:020000040001F9
:04000E00E43FFF3F8D
:00000001FF
