:020000040000FA
:040000008031122811
:100008007E1480310B1F10282100911C102820001D
:10001800911C1028843188247E100900803114280E
:10002800863123268031FA00863124268031FB0070
:10003800863129268031EF00F601F701F801F90130
:10004800203084000030850033308531A0257E10B3
:1000580020008331DD2B200052082100A600A701D3
:1000680026082000D300210027082000D4000330F0
:10007800D5000030D6008331C123803120005408D8
:10008800850053088400F73084078430853D0008D4
:100098006E0503196F2852082100A600A70126083B
:1000A8002000D300210027082000D4000330D50009
:1000B8000030D6008331C1238031200054088500E8
:1000C80053088400F53084078430853D013F8A0059
:1000D800003F0A00803101302100A60026082000D8
:1000E800D20705305202031C0800ED01D20180300E
:1000F8006E0603199B2840306E0603199B28203092
:100108006E0603199B2810306E0603199B280830C9
:100118006E0603199B2804306E0603199B280230CB
:100128006E0603199B286E0303199B289A286E36BE
:100138002100A60026082000EE006E08031D080016
:1001480080302100A60026082000EE000800F628CE
:1001580001302000C3070030C43D00304402653040
:1001680003194302031CBD280230F4007408FB0085
:1001780009290830C1070030C23D09290130200093
:10018800C3070030C43D013044022C300319430238
:10019800031CD5280330F4007408FB00C101C20118
:1001A800092941084204031909290030420205308F
:1001B80003194102031CD2280430C1020030C23B9B
:1001C800092901302000C3070030C43D0130440232
:1001D800913003194302031C0929C301C401FB011F
:1001E800FB0A09297B08F400F5017508003A031990
:1001F800FE2809297408013A0319AC28033A03199F
:10020800C228013A0319E528092920004208F1000B
:100218004108F00084315D24080020001708D3004D
:100228005308D7001608D3005308D60057081706F6
:10023800031926291708D3005308D7001608D30036
:100248005308D6005708D300D4015308D400D3016B
:1002580000305305F600FF305405F70076085604C1
:10026800F6007708F70047087602D3004808773B7E
:10027800D40003305402E83003195302031C080069
:100288004708E83EC7000330483DC8000130CD07A5
:100298000030CE3D03304E02E83003194D02031CF6
:1002A8005B29CD01CE010130CB070030CC3D0130B8
:1002B800C9070030CA3D00304A020A300319490212
:1002C800031C08006D08031D0800C901CA01ED01DF
:1002D800ED0A08008531B8258131003A031D7E29D1
:1002E800A2298531FC2508008531F82508008531CB
:1002F800F025080020002F08DD005D08DC0006302E
:10030800203E86008701413F8A00403F0A00813134
:100318002000DE00DF015F08003A031994297B29D9
:100328005E08013A03197B29033A03197529013A32
:1003380003197829073A03197B297B2920003C10E7
:100348001730203E86008701403F84008501810ADE
:1003580000088531BE25813101302000B802003007
:10036800B93B38083904031DBB290630080003309F
:10037800080086310B2681312000DD003708860011
:1003880087015D0881000130DD005D08B707013095
:10039800B8020030B93B380839040319D729863127
:1003A800002605300800BC15DF298531E425080042
:1003B8008531E82508002C08DD005D08DC002108EF
:1003C8008A0020080A0081312000DE00DF015F0872
:1003D800003A0319F029DC295E08013A0319DC29DF
:1003E800033A0319D929013A0319D929073A0319F4
:1003F800DC29DC2908008531C42581312000D2019F
:100408008030D3005308EE00ED01ED0ACD01CE0196
:10041800CB01CC01C901CA011708D3005308D70082
:100428001608D3005308D600570817060319242ABC
:100438001708D3005308D7001608D3005308D6006E
:100448005708D300D4015308D400D3010030530512
:10045800F600FF305405F70076085604F6007708D2
:10046800F7007708C8007608C70008002000D40005
:10047800D501D50A3C19702A5408D3005308B60090
:10048800BC103C153C100E30D3005308BA00F430B1
:10049800B4000130B500BC152730A0000630A1001B
:1004A800AC012730A2000630A300AD012730A4001C
:1004B8000630A500AE012730A6000630A700AF0120
:1004C8002530A8000630A900B001863120268231E7
:1004D80085312C252000D501550808002000BC15C1
:1004E8007F2A8531F4250800863108260330080064
:1004F8008531F02508002C08DD005D08DC002108A6
:100508008A0020080A0082312000DE00DF015F082F
:10051800003A0319902A7C2A5E08013A03197C2ABA
:10052800033A0319752A013A0319752A073A031978
:10053800782A7C2A080020003C100230DD005D0883
:10054800BB00AC2A8531F42508008531F025080068
:100558002E08DD005D08DC000430203E860087019F
:10056800413F8A00403F0A0082312000DE00DF015F
:100578005F08003A0319C12AA92A5E08023A03193A
:10058800A62A013A0319A62AA92A08008631202694
:10059800823120003C1CDB2A8531B8258231003AA3
:1005A8000319DB2A0F302000E0006008BA002000A1
:1005B8003A08E000E101E035E10D8430600784008D
:1005C8008330613D8500013F8A00003F0A00823187
:1005D8002000E2006208BA0008006F302000EA003C
:1005E8006A08E6000130E7000030E8008030833117
:1005F800162382316F302000EA006A08E6000130D5
:10060800E7000030E80080308331A42382312000E5
:100618006F08303E85317025E3302000EA006A0813
:10062800EF0008002000E9002000690882313A2222
:100638008331003A0319182B20006808D400670892
:10064800D300660885310425833100302000D800A6
:10065800D900DA018531122583318531D8258331D6
:10066800843144248331013A031D0800342B2000CF
:10067800D700530854040319522B5735203E8600DF
:1006880087015308C03F5408C13F5508D600570892
:100698002C3E860087015608810008005735203E09
:1006A800860087012730C03F0630C13F57082C3EDF
:1006B8008600870181010800083023009F009030E0
:1006C8009D0024309E00A0309B0001309C0000302B
:1006D8002000D3000030D40085315E2583310030FE
:1006E8002000D3000030D4008531552583310030F7
:1006F8002000D3000030D40085316725F9010800B7
:10070800CF34053491340534993405346E340134CA
:10071800BD340134B234053472340234FC34053447
:10072800F8340534F4340534F0340534EC34053445
:10073800E8340534E4340534CA3405349F340234CB
:100748002000E9002000690882313A228331003A0A
:100758000319A62B20006808D4006708D300660890
:100768008531042583318531DC2583318431442466
:100778008331013A031D0800BA2B2000D701D801A4
:10078800531CCA2B5508D7075608D83D0130D53514
:10079800D60D890BCB2B0130D436D30C890BD02B3B
:1007A80053085404031DC42B5808D4005708D30019
:1007B80008008431732483318131FF218331AB30C8
:1007C8002000D3000030D4008531A62583318B1753
:1007D8000B1781311121833120006D080319ED2B8E
:1007E80080312F208331ED2B2000E400E501E50A5C
:1007F800BC180F2CBC14E50164080319062CBA01B7
:10080800BA0A0A2C0230E3006308BA0086311726B8
:1008180083318531422520006508080022008C01BB
:100828008D018E013F3021008C0070308D009B308F
:100838008E008B3023008E008D0117308C00240031
:100848008D018C012100951722009D0108002000D0
:100858005C0886008701403FD300413FD4005C0814
:10086800023E860087010108853104258431003065
:100878002000D800D900DA0185311F250230080090
:100888002000D401D40ABC185B2C3C11FF30D300E3
:100898005308B60086312026843186311A268431E1
:1008A80086311D2620003B08D3005308D400540885
:1008B80008007108F3007008F200F336F20CF33602
:1008C800F20C72082C00920070080339F20005300F
:1008D800F235FF3E031D6C2C7235910008008531FE
:1008E8004C2584318431122484318531AC258431FE
:1008F8008531D425843185317925843184319B240F
:100908008431833160230800200091100130C5072D
:100918000030C63D00304602053003194502031C6D
:100928000800853137252000C501C6010800F930C7
:1009380020009B009A019110210091142A30200078
:10094800D3000630D4008531A625063020009C004F
:10095800080001302000D3000030D4005C08853145
:100968000425843100302000D800D900DA0185310F
:100978001F250430080002302000D3000030D400C6
:100988005C0885310425843100302000D800D90066
:10099800DA0185311F250230080001302000D3001C
:1009A8000030D4005C0885310425843100302000F3
:1009B800D800D900DA0185311F250230080002303D
:1009C8002000D3000030D4005C0885310425843130
:1009D80000302000D800D900DA0185311F25043005
:1009E8000800813405348034F13402344034003452
:1009F800003400340034003400340034003400344F
:100A08002000D600BC1D08005608D5005508B700C0
:100A18005408B9005308B800BC1108002000590850
:100A2800D4005808D3005A08DB005B08D500023010
:100A380083313B23080020005908D4005808D3000C
:100A48005A08DB005B08D500003083313B230800DF
:100A58002400951A08009401083095009601273063
:100A680092009516080020006B086C040319080012
:100A78006C088A006B080A00853108002000BC1C3D
:100A880008008531E02585318231CA228531422D21
:100A980024009401083095009601273092009512A1
:100AA8000800200054082100A3002000530821005A
:100AB800A2000800200054082100A50020005308C7
:100AC8002100A4000800200054082100A1002000F3
:100AD80053082100A00008002000D4005408D300C7
:100AE8005308FA00F801F80A0800C0302C009300F7
:100AF8007C309200C030910008007803031D080084
:100B08007A0885318925F80108002000D300111ED4
:100B18008B2D530823009A00080020003C1403146E
:100B2800360D8531BE250530080020003C143635C9
:100B38008531BE2503300800640080010131890B2E
:100B4800A12D003420005408EC005308EB000800E5
:100B580078302100990022009601080020003C10FE
:100B680086310E26043008002400160E890C890CE4
:100B7800013908002000D300530824009100080020
:100B88002000970196012130980008002000BC1031
:100B9800BB010E3008002000BC10BB010E3008005D
:100BA800163021009700080000308331F823080030
:100BB80001308331F8230800200091190800E02D46
:100BC8008631042609300800863104260A300800D8
:100BD80086310026053008008631112600300800CD
:100BE80086311426013008008631142602300800A8
:100BF80086311426013008002400961216160800C3
:100C080024009616161608002000911508002400E6
:100C1800110808002400961508002400161508007D
:100C280024009614080024001614080021009111CD
:100C3800080024009512080020009111080055347E
:0E0C480001340530080001300800E3340800D4
:020000040001F9
:04000E00E43FFF3F8D
:00000001FF
