:020000040000FA
:040000008031122811
:100008007E1480310B1F10282100911C102820001D
:10001800911C1028843197247E10090080311428FF
:10002800863134268031FA00863135268031FB004E
:1000380086313A268031EF00F601F701F801F9011F
:10004800203084000030850035308531BB257E1096
:1000580020008331EC2B200052082100A900AA01BE
:1000680029082000D50021002A082000D6000330E6
:10007800D7000030D8008331D023803120005608C3
:10008800850055088400163084078530853D0008B2
:100098006E0503196F2852082100A900AA01290832
:1000A8002000D50021002A082000D6000330D70000
:1000B8000030D8008331D0238031200056088500D5
:1000C80055088400143084078530853D013F8A0037
:1000D800003F0A00803101302100A90029082000D2
:1000E800D20705305202031C08002100A801200095
:1000F800D20180306E0603199D2840306E06031920
:100108009D2820306E0603199D2810306E060319AD
:100118009D2808306E0603199D2804306E060319C1
:100128009D2802306E0603199D286E0303199D2829
:100138009C286E362100A90029082000EE006E08D0
:10014800031D080080302100A90029082000EE00C6
:100158000800F82801302000C1070030C23D0030F7
:100168004202653003194102031CBF280230F40023
:100178007408FB000B290830BF070030C03D0B296D
:1001880001302000C1070030C23D013042022C304E
:1001980003194102031CD7280330F4007408FB003C
:1001A800BF01C0010B293F08400403190B29003087
:1001B8004002053003193F02031CD4280430BF0253
:1001C8000030C03B0B2901302000C1070030C23D80
:1001D80001304202913003194102031C0B29C1016D
:1001E800C201FB01FB0A0B297B08F400F501750825
:1001F800003A031900290B297408013A0319AE289B
:10020800033A0319C428013A0319E7280B292000E7
:100218004008F1003F08F00084316C2408002000F9
:100228001708D5005508D9001608D5005508D80074
:1002380059081706031928291708D5005508D900A1
:100248001608D5005508D8005908D500D601550814
:10025800D600D50100305505F600FF305605F700E9
:1002680076085804F6007708F70045087602D500A6
:100278004608773BD60003305602E830031955028A
:10028800031C08004508E83EC5000330463DC6008B
:100298000130CB070030CC3D03304C02E830031965
:1002A8004B02031C5D29CB01CC010130C90700308A
:1002B800CA3D0130C7070030C83D003048020A3047
:1002C80003194702031C080021002808031D080021
:1002D8002000C701C8012100A801A80A0800A52913
:1002E800240016148030910002309D292400161F26
:1002F800BF29F530910003309D292400161FBF291E
:1003080064302000D5000030D600853104258131C5
:100318002400161504309D295330EC006C08E800C1
:100328000230E9000030EA0080308331B3238131A4
:1003380005302000EC006C08EF00BF29EF01EF0A40
:10034800BF2920006F08EC00ED016D08003A031981
:10035800AE29BF296C08013A03197429033A031915
:100368007A29013A03198129073A03199029013A90
:100378000319A229BF2920005308303E85318B2557
:1003880008008531CD258131003A031DD529F92989
:1003980086310D2608008631092608008631012697
:1003A800080020002F08DF005F08DE000630203E2E
:1003B80086008701413F8A00403F0A0081312000C2
:1003C800E000E1016108003A0319EB29D22960082D
:1003D800013A0319D229033A0319CC29013A03191E
:1003E800CF29073A0319D229D22920003C10173007
:1003F800203E86008701403F84008501810A00086D
:100408008531D325813101302000B8020030B93B55
:1004180038083904031D122A063008000330080082
:1004280086311C2682312000DF00370886008701CC
:100438005F0881000130DF005F08B7070130B802AC
:100448000030B93B3808390403192E2A86311126A1
:1004580005300800BC15362A8531F5250800853198
:10046800F92508002C08DF005F08DE0021088A0053
:1004780020080A0082312000E000E1016108003A0A
:100488000319472A332A6008013A0319332A033A21
:100498000319302A013A0319302A073A0319332A73
:1004A800332A08008531D92582312000D2018030D5
:1004B800D5005508EE002100A801A80A2000CB01AC
:1004C800CC01C901CA01C701C8011708D5005508E0
:1004D800D9001608D5005508D80059081706031979
:1004E8007D2A1708D5005508D9001608D5005508E3
:1004F800D8005908D500D6015508D600D5010030D6
:100508005505F600FF305605F70076085804F60042
:100518007708F7007708C6007608C50008002000AD
:10052800D600D701D70A3C19C92A5608D50055085C
:10053800B600BC103C153C100E30D5005508BA006A
:10054800F430B4000130B500BC153830A0000630D6
:10055800A100AC013830A2000630A300AD0138304C
:10056800A4000630A500AE013830A6000630A7006A
:10057800AF013630A8000630A900B0018631312617
:10058800823185313E252000D70157080800200018
:10059800BC15D82A8631052608008631192603306D
:1005A80008008631012608002C08DF005F08DE00FD
:1005B80021088A0020080A0082312000E000E101B9
:1005C8006108003A0319E92AD52A6008013A031993
:1005D800D52A033A0319CE2A013A0319CE2A073A33
:1005E8000319D12AD52A080020003C100230DF0068
:1005F8005F08BB00052B86310526080086310126D9
:1006080008002E08DF005F08DE000430203E860068
:100618008701413F8A00403F0A0083312000E00003
:10062800E1016108003A03191A2B022B6008023A0B
:100638000319FF2A013A0319FF2A022B0800863101
:100648003126833120003C1C342B8531CD25833164
:10065800003A0319342B0F302000E2006208BA0078
:1006680020003A08E200E301E235E30D9330620727
:1006780084008330633D8500013F8A00003F0A0003
:1006880083312000E4006408BA0008002000D90083
:10069800550856040319612B5935203E86008701F9
:1006A8005508C03F5608C13F5708D80059082C3E86
:1006B800860087015808810008005935203E8600C9
:1006C80087013830C03F0630C13F59082C3E8600AC
:1006D800870181010800083023009F0090309D00A9
:1006E80024309E00A0309B0001309C000030200088
:1006F800D5000030D60085317925833100302000BF
:10070800D5000030D60085317025833100302000B7
:10071800D5000030D60085318225F9010800E4347F
:100728000534AC340534B4340534C53401341434D8
:100738000234C7340534CB3402340D34063409345A
:1007480006340534063401340634FD340534F934EE
:100758000534F5340534DF340534F8340234200028
:10076800EB0020006B08823193228331003A031991
:10077800B52B20006A08D6006908D50068088531BD
:10078800232583318531ED25833184315324833109
:10079800013A031D0800C92B2000D901DA01551CB4
:1007A800D92B5708D9075808DA3D0130D735D80D65
:1007B800890BDA2B0130D636D50C890BDF2B55087F
:1007C8005604031DD32B5A08D6005908D500080033
:1007D800843182248331823156228331AD30200026
:1007E800D5000030D60085315E2583318B170B1775
:1007F800813113218331210028080319FC2B803112
:100808002F208331FC2B2000E600E701E70ABC1803
:100818001E2CBC14E70166080319152CBA01BA0A84
:10082800192C0230E5006508BA0086312826843183
:100838008531542520006708080022008C018D01AD
:100848008E013F3021008C0070308D009B308E006F
:100858008B3023008E008D0117308C0024008D0111
:100868008C012100951722009D01080020005E08D8
:1008780086008701403FD500413FD6005E08023E12
:100888008600870101088531232584310030200046
:10089800DA00DB00DC018531312502300800200058
:1008A800D601D60ABC186A2C3C11FF30D500550871
:1008B800B60086313126843186312B268431863143
:1008C8002E2620003B08D5005508D60056080800FB
:1008D8007108F3007008F200F336F20CF336F20CEC
:1008E80072082C00920070080339F2000530F235C6
:1008F800FF3E031D7B2C723591000800853167256A
:1009080084318431212484318531C1258431853174
:10091800E92584318531942584318431AA248431B0
:1009280083316F230800200091100130C307003085
:10093800C43D00304402053003194302031C08007B
:10094800853149252000C301C4010800F930200081
:100958009B009A019110210091143B302000D50092
:100968000630D60085315E25063020009C00080040
:1009780001302000D5000030D6005E0885312325DF
:10098800843100302000DA00DB00DC0185313125BC
:100998000430080002302000D5000030D6005E0880
:1009A80085312325843100302000DA00DB00DC01AA
:1009B800853131250230080001302000D500003093
:1009C800D6005E0885312325843100302000DA0006
:1009D800DB00DC01853131250230080002302000BF
:1009E800D5000030D6005E088531232584310030DB
:1009F8002000DA00DB00DC018531312504300800F5
:100A08002000D701D80156085802031D0D2D55089E
:100A18005702031808000130D7070030D83D072DCA
:100A28009C34053480347334013440340034003449
:100A38000034003400340034003400340034200022
:100A4800D800BC1D08005808D7005708B70056083A
:100A5800B9005508B800BC11080020005B08D60092
:100A68005A08D5005C08DD005D08D70000308331E6
:100A78004A2308002400951A0800940108309500BC
:100A880096012730920095160800210026082704B1
:100A98000319080027088A0026080A00853108007B
:100AA8002000BC1C08008531F125853183312323C2
:100AB8008531542D200056082100A7002000550834
:100AC8002100A60008002400940108309500960132
:100AD8002730920095120800200056082100A30034
:100AE800200055082100A200080020005608210017
:100AF800A500200055082100A40008002000560881
:100B08002100A100200055082100A00008002000B5
:100B1800D6005608D5005508FA00F801F80A08006A
:100B2800C0302C0093007C309200C0309100080047
:100B38007803031D08007A088531A425F801080008
:100B48002000D500111EA62D550823009A00080084
:100B580020003C140314360D8531D32505300800D8
:100B680020003C1436358531D32503300800640055
:100B780080010131890BBC2D0034783021009900A7
:100B880022009601080020003C1086311F26043000
:100B980008002400160E890C890C01390800200071
:100BA800D5005508240091000800200097019601FF
:100BB8002130980008002000BC10BB010E3008004E
:100BC8002000BC10BB010E30080016302100970031
:100BD800080001308431072408002000911908001A
:100BE800F12D8631152609300800863115260A3080
:100BF800080086311126053008008631222600308B
:100C08000800863125260130080086312526023065
:100C18000800863125260130080024009612161691
:100C280008002400961616160800200091150800E2
:100C38002400110808002400961508002400161541
:100C48000800240096140800240016140800210047
:100C58009111080024009512080020009111080045
:100C6800553401340530080001300800013408000B
:020000040001F9
:04000E00E43FFF3F8D
:00000001FF
