:020000040000FA
:040000008031122811
:100008007E1480310B1F10282100911C102820001D
:10001800911C1028823159227E1009008031142841
:100028008231E2228031FB008231E3228031DF001D
:10003800F601F701F801F901FA01203084000030D7
:1000480085002D308231B4227E1020008131FA29BA
:1000580020004C08DD00DE015D08D7005E08D800EE
:100068000330D9000030DA008131DE2180312000F0
:1000780058088500570884008E3084078230853DF3
:1000880000085605031964284C08DD00DE015D08E8
:10009800D7005E08D8000330D9000030DA0081317B
:1000A800DE218031200058088500570884008C30F4
:1000B80084078230853D013F8A00003F0A00803175
:1000C80001302000DD005D08CC0704304C02031C21
:1000D8000800D501CC018030560603198F2840301E
:1000E800560603198F282030560603198F2810301A
:1000F800560603198F280830560603198F2804302E
:10010800560603198F280230560603198F285603FE
:1001180003198F288E285636DD005D08D60056084C
:10012800031D08008030DD005D08D6000800E628C1
:100138000130F6070030F73D0030770265300319CB
:100148007602031CAC280230F4007408FB00F9287E
:1001580008302000BD070030BE3DF9280130F60701
:100168000030F73D013077022C3003197602031C6A
:10017800C5280330F4007408FB002000BD01BE014F
:10018800F92820003D083E040319F92800303E02F2
:10019800053003193D02031CC1280430BD0200309C
:1001A800BE3BF9280130F6070030F73D01307702F1
:1001B800913003197602031CF928F601F701FB01B7
:1001C800FB0AF9287B08F400F5017508003A0319C1
:1001D800EE28F9287408013A03199C28033A0319F0
:1001E800B228013A0319D628F92820003E08F10060
:1001F8003D08F00082312E22080020001708D700A1
:100208005708DB001608D7005708DA005B081706FE
:10021800031916291708D7005708DB001608D70056
:100228005708DA005B08D700D8015708D800D7016B
:1002380000305705F800FF305805F90078085A04CF
:10024800F8007908F90041087802D7004208793B9C
:10025800D80003305802E83003195702031C08007D
:100268004108E83EC1000330423DC2000130C707E3
:100278000030C83D03304802E83003194702031C28
:100288004B29C701C8010130C5070030C63D013000
:10029800C3070030C43D003044020A30031943024A
:1002A800031C08005508031D0800C301C401D5013B
:1002B800D50A08008231D82281312000CC01803053
:1002C800D7005708D600D501D50AC701C801C5010E
:1002D800C601C301C4011708D7005708DB00160878
:1002E800D7005708DA005B0817060319832917088F
:1002F800D7005708DB001608D7005708DA005B0854
:10030800D700D8015708D800D70100305705F800A2
:10031800FF305805F90078085A04F8007908F90000
:100328007908C2007808C1000800083023009F003F
:1003380090309D0024309E00A0309B0001309C002E
:1003480000302000D7000030D8008231CC22813123
:1003580000302000D7000030D8008231C622813119
:1003680000302000D7000030D8008231D22220008F
:10037800CB01080000340034003400340034003469
:1003880000340034003400340034003400340034C5
:1003980000340034003400340034003400340034B5
:1003A80000340034003400340034003400340034A5
:1003B800003400342000DB01DC01571CE729590810
:1003C800DB075A08DC3D0130D935DA0D890BE829FD
:1003D8000130D836D70C890BED2957085804031D6E
:1003E800E1295C08D8005B08D70008008231442264
:1003F800813181315E2181319B302000D70000306E
:10040800D8008231BA2281318B170B178131012133
:1004180081312000550803190A2A80312C208131A6
:100428000A2A22008C018D018E013F3021008C00A8
:1004380070308D009B308E008B3023008E008D0134
:1004480017308C0024008D018C01210095172200A3
:100458009D0108007108F3007008F200F336F20CF1
:10046800F336F20C72082C00920070080339F2007F
:100478000530F235FF3E031D3D2A72359100080014
:100488008231A32282318231152282318231C02207
:1004980082318231DE2282318231AC228231823154
:1004A8006C2282318131992108002000911001309D
:1004B800BF070030C03D00304002053003193F023D
:1004C800031C0800823198222000BF01C0010800E7
:1004D800F93020009B009A01911021009114E4301A
:1004E8002000D7000230D8008231BA22063020001E
:1004F8009C00080001302000D7005708FA077A0846
:1005080023009A00C9307A02031C0800FA01080087
:100518007E34023480340034003400340034003433
:100528000034003400340034200053085404031904
:10053800080054088A0053080A0082310800240081
:100548009401083095009601273092009512080012
:10055800C0302C0093007C309200C030910008001D
:10056800640080010131890BB52A00342000580845
:10057800D4005708D30008007830210099002200E1
:100588009601080020005808D0005708CF0008003E
:1005980020005808D2005708D10008002000580849
:1005A800CE005708CD0008002000970196012130A1
:1005B80098000800163021009700080001345534CF
:0205C800080029
:020000040001F9
:04000E00E43FFF3F8D
:00000001FF
