:020000040000FA
:040000008031122811
:100008007E1480310B1F10282100911C102820001D
:10001800911C102884313A247E100900803114285C
:100028008431FA248031FA008431FB248031FB00CA
:100038008431FC248031EE00F601F701F801F90162
:1000480020308400003085002D308431CC247E108F
:1000580020008331DA2B1329C501BF01BF0A3329D8
:100068008431A124803180308431252480312000DE
:10007800E2006208F804F33084312524803120003E
:10008800E2006208F8047808031D51280230E200F3
:100098006208BF00AA01AB01332984318024803172
:1000A80033298431A12480310A302000AA07003086
:1000B800AB3D00302B02C93003192A02031851281E
:1000C8008130843125248031003A031D33290030E2
:1000D80083319E2380312000E2006208C300003093
:1000E80083319E2380312000E2006208C200430869
:1000F800E200E3016208A4006308A5000830A43503
:10010800A50D890B83284208E200E3016208A404D4
:100118006308A504013083319E2380312000E2006A
:100128006208C4008431972480310330FA2884316E
:10013800A124803180308431252480312000E200E0
:100148006208F804F5308431252480312000E2006B
:100158006208F8047808031D5128AA01AB0104308D
:1001680005298431A12480310A302000AA070030F3
:10017800AB3D00302B02C93003192A02031851285D
:100188008130843125248031003A031D3329003021
:1001980083319E2380312000E2006208C1000030D4
:1001A80083319E2380312000E2006208C0004108AC
:1001B800E200E3016208A2006308A3000830A23548
:1001C800A30D890BE3284008E200E3016208A204BA
:1001D8006308A304013083319E2380312000E200AC
:1001E8006208C40084319724803105302000052935
:1001F8008231C822803120005A08A9005908A80075
:100208000630E2006208BF003329BF01823177223D
:10021800803120005A08A7005908A6003329200079
:100228003F08E200E3016308003A03191C29332957
:100238006208003A03193028013A03193428033AAE
:1002480003195528013A03199B28073A0319B528B9
:10025800013A0319FC28033A031909293329200014
:1002680028088431AB24080020004C082100A00095
:10027800A10120082000CD00210021082000CE0087
:100288000330CF000030D0008331BE2381312000FD
:100298004E0885004D088400733084078430853DFE
:1002A80000086D05031978294C082100A000A10158
:1002B80020082000CD00210021082000CE000330B6
:1002C800CF000030D0008331BE23813120004E089A
:1002D80085004D088400713084078430853D013FD6
:1002E8008A00003F0A00813101302100A000200867
:1002F8002000CC0705304C02031C0800EC01CC019F
:1003080080306D060319A42940306D060319A4290D
:1003180020306D060319A42910306D060319A4298D
:1003280008306D060319A42904306D060319A429A1
:1003380002306D060319A4296D030319A429A32902
:100348006D362100A00020082000ED006D08031D77
:10035800080080302100A00020082000ED000800DF
:10036800FF2901302000B2070030B33D00303302CE
:10037800653003193202031CC6290230F4007408E0
:10038800FB00122A0830B0070030B13D122A0130B4
:100398002000B2070030B33D013033022C3003197E
:1003A8003202031CDE290330F4007408FB00B0019C
:1003B800B101122A300831040319122A003031021F
:1003C800053003193002031CDB290430B002003069
:1003D800B13B122A01302000B2070030B33D013092
:1003E8003302913003193202031C122AB201B301FD
:1003F800FB01FB0A122A7B08F400F5017508003A94
:100408000319072A122A7408013A0319B529033A6D
:100418000319CB29013A0319EE29122A20003108C1
:10042800F1003008F00084310F240800200017087C
:10043800CD004D08D1001608CD004D08D000510858
:10044800170603192F2A1708CD004D08D1001608E2
:10045800CD004D08D0005108CD00CE014D08CE008A
:10046800CD0100304D05F600FF304E05F700760847
:100478005004F6007708F70036087602CD003708F2
:10048800773BCE0003304E02E83003194D02031CBF
:1004980008003608E83EB6000330373DB7000130A3
:1004A800BC070030BD3D03303D02E83003193C0273
:1004B800031C642ABC01BD010130BA070030BB3DF2
:1004C8000130B8070030B93D003039020A3003194D
:1004D8003802031C08006C08031D0800B801B901A4
:1004E800EC01EC0A080020002208CD002308CE0009
:1004F800CF01D0010030D4000030D3007D30D200CD
:100508000030D10083314923823120005008E100B6
:100518004F08E0004E08DF004D08DE000030DE071F
:100528000030DF3D0030E03DFA30E13DE11FA42A14
:100538000030E1000030E0000030DF000030DE0075
:100548000830DB00E137E00CDF0CDE0CDB0BA62A01
:100558000830DB00E137E00CDF0CDE0CDB0BAE2AE9
:100568005F08DD005E08DC0064305D0201300319BD
:100578005C02031CC32A0030DC006430DD005D0827
:10058800DA005C08D900080020002408CD002508FE
:10059800CE00CF01D0010030D4000030D300AF30FE
:1005A800D200B830D100833149238231200050086D
:1005B800E1004F08E0004E08DF004D08DE0067301C
:1005C800DE076630DF3D2630E03DF930E13DE11FD2
:1005D800F52A0030E1000030E0000030DF00003094
:1005E800DE000830DB00E137E00CDF0CDE0CDB0B53
:1005F800F72A0830DB00E137E00CDF0CDE0CDB0B00
:10060800FF2A5F08DD005E08DC005D08DA005C0890
:10061800D90008008431F02483312000CC018030D7
:10062800CD004D08ED00EC01EC0ABC01BD01BA019A
:10063800BB01B801B9011708CD004D08D100160853
:10064800CD004D08D000510817060319332B1708A1
:10065800CD004D08D1001608CD004D08D000510836
:10066800CD00CE014D08CE00CD0100304D05F6007D
:10067800FF304E05F70076085004F6007708F700BB
:100688007708B7007608B600080000302000D800C8
:100698000030D7000030D6000030D5004D1C5C2B50
:1006A8005108D5075208D63D5308D73D5408D83DC0
:1006B8000130D135D20DD30DD40D890B5D2B01300E
:1006C800D036CF0CCE0CCD0C890B642B50084F04C0
:1006D8004E044D04031D522B5808D0005708CF0074
:1006E8005608CE005508CD000800083023009F00AA
:1006F80090309D0024309E00A0309B0001309C006B
:1007080000302000CD000030CE008431E424833155
:1007180000302000CD000030CE008431DE2483314B
:1007280000302000CD000030CE008431EA242000C3
:10073800CB0108002000CE00240096152000911D52
:10074800A22B9111240011082000CD004D08CF00E4
:100758004E08031DB22B24009612B42B24009616C3
:1007680020009111240016162000911DB82B91111C
:100778004F0808002000D101D2014D1CC72B4F089B
:10078800D1075008D23D0130CF35D00D890BC82B89
:100798000130CE36CD0C890BCD2B4D084E04031DF0
:1007A800C12B5208CE005108CD00080084314D24D9
:1007B800833183310E238331B4302000CD000130E2
:1007C800CE008431D22483318B170B1782311A2241
:1007D800833120006C080319EA2B813138218331D9
:1007E800EA2B22008C018D018E013F3021008C0004
:1007F80070308D009B308E008B3023008E001030BF
:100808008D0017308C0024008D018C012100951774
:1008180022009D0108007108F3007008F200F33609
:10082800F20CF336F20C72082C00920070080339AF
:10083800F2000530F235FF3E031D1E2C7235910083
:1008480008002000CE00CF0191114E08240091002D
:100858002000911D2C2C9111240094011608403978
:100868002000CD004D08CF044F080800200091104B
:100878000130B4070030B53D0030350205300319AA
:100888003402031C080084318C242000B401B50113
:1008980008008331F52384318431D82484318431AC
:1008A800F62484318431B424843184315F24843142
:1008B800833179230800F93020009B009A019110B8
:1008C80021009114FD302000CD000430CE00843189
:1008D800D224063020009C000800BC340434803444
:1008E8002F340034403400340034003400340034F1
:1008F80000340034003400342000A401A501A20112
:10090800A301C501C50A0530CD004D08BF00080088
:1009180020006A086B04031908006B088A006A083B
:100928000A00843108002000911104302400960048
:100938002000911D9C2C911108002000911101307C
:10094800240096002000911DA62C9111080020007B
:10095800CE004E08CD004D08FA00F901F90A08004A
:10096800C0302C0093007C309200C0309100080009
:100978007903031D08007A088431C424F9010800AA
:100988002000CD00111EC62C4D0823009A00080037
:10099800640080010131890BCD2C003420004E0801
:1009A800EB004D08EA000800783021009900220089
:1009B8009601080020004E08E7004D08E6000800F0
:1009C80020004E08E9004D08E800080020004E0805
:1009D800E5004D08E4000800200097019601213049
:1009E800980008001630210097000800553401349B
:0409F80001340800BE
:020000040001F9
:04000E00E43FFF3F8D
:00000001FF
