:020000040000FA
:040000008031122811
:100008007E1480310B1F10282100911C102820001D
:10001800911C1028843183247E1009008031142813
:10002800863121268031FA00863122268031FB0074
:10003800F601F701F801F90120308400003085004D
:1000480035308531A4257E1020008331D82B20003F
:1000580052082100A800A90128082000D500210085
:1000680029082000D6000330D7000030D80083319B
:10007800BC23803120005608850055088400F230E2
:1000880084078430853D00086E0503196B285208E3
:100098002100A800A90128082000D500210029086E
:1000A8002000D6000330D7000030D8008331BC23AD
:1000B800803120005608850055088400F0308407F8
:1000C8008430853D013F8A00003F0A0080310130BD
:1000D8002100A80028082000D20705305202031C7E
:1000E8000800ED01D20180306E06031997284030D0
:1000F8006E060319972820306E06031997281030CA
:100108006E060319972808306E06031997280430DD
:100118006E060319972802306E06031997286E0396
:100128000319972896286E362100A8002808200071
:10013800EE006E08031D080080302100A800280882
:100148002000EE000800F22801302000C30700302C
:10015800C43D00304402653003194302031CB9282A
:100168000230F4007408FB0005290830C10700308C
:10017800C23D052901302000C3070030C43D0130CD
:1001880044022C3003194302031CD1280330F40025
:100198007408FB00C101C201052941084204031982
:1001A800052900304202053003194102031CCE28FC
:1001B8000430C1020030C23B052901302000C307CA
:1001C8000030C43D01304402913003194302031C3E
:1001D8000529C301C401FB01FB0A05297B08F400BA
:1001E800F5017508003A0319FA2805297408013A37
:1001F8000319A828033A0319BE28013A0319E1286C
:10020800052920004208F1004108F00084315824F3
:10021800080020001708D5005508D9001608D50091
:100228005508D80059081706031922291708D500B8
:100238005508D9001608D5005508D8005908D50022
:10024800D6015508D600D50100305505F600FF3017
:100258005605F70076085804F6007708F7004708AF
:100268007602D5004808773BD60003305602E830BE
:1002780003195502031C08004708E83EC70003306D
:10028800483DC8000130CD070030CE3D03304E0256
:10029800E83003194D02031C5729CD01CE01013066
:1002A800CB070030CC3D0130C9070030CA3D0030D3
:1002B8004A020A3003194902031C08006D08031D8D
:1002C8000800C901CA01ED01ED0A08008531B6250B
:1002D8008131003A031D7A299E298531FA250800C3
:1002E8008531F62508008531EE25080020002F0805
:1002F800DF005F08DE000630203E86008701413FB0
:100308008A00403F0A0081312000E000E1016108D5
:10031800003A0319902977296008013A03197729C7
:10032800033A03197129013A03197429073A031981
:100338007729772920003C101730203E8600870156
:10034800403F84008501810A00088531BC25813140
:1003580001302000B8020030B93B38083904031DC9
:10036800B729063008000330080086310926813194
:100378002000DF003708860087015F088100013010
:10038800DF005F08B7070130B8020030B93B380812
:1003980039040319D3298531FE2505300800BC1519
:1003A800DB298531E22508008531E62508002C087F
:1003B800DF005F08DE0021088A0020080A0081317A
:1003C8002000E000E1016108003A0319EC29D8296E
:1003D8006008013A0319D829033A0319D529013AC3
:1003E8000319D529073A0319D829D82908008531CE
:1003F800C22581312000D2018030D5005508EE0099
:10040800ED01ED0ACD01CE01CB01CC01C901CA0134
:100418001708D5005508D9001608D5005508D80082
:10042800590817060319202A1708D5005508D900B6
:100438001608D5005508D8005908D500D601550822
:10044800D600D50100305505F600FF305605F700F7
:1004580076085804F6007708F7007708C800760889
:10046800C70008002000D600D701D70A3C196C2A1B
:100478005608D5005508B600BC103C153C100E3087
:10048800D5005508BA00F430B4000130B500BC15E9
:100498002530A0000630A100AC012530A2000630AE
:1004A800A300AD012530A4000630A500AE0125301B
:1004B800A6000630A700AF012330A8000630A90027
:1004C800B00186311E268231853127252000D701CB
:1004D800570808002000BC157B2A8531F225080042
:1004E80086310626033008008531EE2508002C08E1
:1004F800DF005F08DE0021088A0020080A00823138
:100508002000E000E1016108003A03198C2A782AEA
:100518006008013A0319782A033A0319712A013A43
:100528000319712A073A0319742A782A0800200047
:100538003C100230DF005F08BB00A82A8531F22595
:1005480008008531EE2508002E08DF005F08DE0070
:100558000430203E86008701413F8A00403F0A0060
:1005680082312000E000E1016108003A0319BD2A48
:10057800A52A6008023A0319A22A013A0319A22AF5
:10058800A52A080086311E26823120003C1CD72A65
:100598008531B6258231003A0319D72A0F30200059
:1005A800E2006208BA0020003A08E200E301E235FE
:1005B800E30D7F30620784008330633D8500013F8F
:1005C8008A00003F0A0082312000E4006408BA0073
:1005D80008002000EB0020006B08823136228231AF
:1005E800003A0319EF2A20006A08D6006908D500E6
:1005F80068088431FF24823100302000DA00DB00F3
:10060800DC0185310D2582318531D6258231843151
:100618003F248231013A031D08000B2B2000D9002A
:10062800550856040319292B5935203E86008701A1
:100638005508C03F5608C13F5708D80059082C3EF6
:10064800860087015808810008005935203E860039
:1006580087012530C03F0630C13F59082C3E86002F
:10066800870181010800083023009F0090309D0019
:1006780024309E00A0309B0001309C0000302000F8
:10068800D5000030D6008531622583310030200046
:10069800D5000030D600853159258331003020003F
:1006A800D5000030D60085316B25F9010800F530FA
:1006B8002000EC006C08D3005330EC006C08E80014
:1006C8000130E9000030EA0080308231ED228331C8
:1006D80054302000EC006C08E8000130E9000030DC
:1006E800EA00813083319F23833120005408303E53
:1006F800853174250800CD340534953405349D348E
:1007080005346A340134B9340134B03405346E34F4
:100718000234FA340534F6340534F2340534EE3450
:100728000534EA340534E6340534E2340534C83493
:1007380005349B3402342000EB0020006B08823122
:1007480036228331003A0319A12B20006A08D6000B
:100758006908D50068088431FF2483318531DA259A
:10076800833184313F248331013A031D0800B52BBE
:100778002000D901DA01551CC52B5708D90758089C
:10078800DA3D0130D735D80D890BC62B0130D63666
:10079800D50C890BCB2B55085604031DBF2B5A08C3
:1007A800D6005908D500080084316E248331813180
:1007B800FB218331A7302000D5000030D6008531D9
:1007C800472583318B170B1781310D218331200089
:1007D8006D080319E82B80312B208331E82B20008A
:1007E800E600E701E70ABC180A2CBC14E701660812
:1007F8000319012CBA01BA0A052C0230E500650874
:10080800BA0086311526833185313D2520006708D9
:10081800080022008C018D018E013F3021008C00E0
:1008280070308D009B308E008B3023008E008D0140
:1008380017308C0024008D018C01210095172200AF
:100848009D01080020005E0886008701403FD50012
:10085800413FD6005E08023E8600870101088431C8
:10086800FF24843100302000DA00DB00DC01853110
:100878001A25023008002000D601D60ABC18562CCA
:100888003C11FF30D5005508B60086311E2684314C
:1008980086311826843186311B2620003B08D50076
:1008A8005508D600560808007108F3007008F200D1
:1008B800F336F20CF336F20C72082C009200700832
:1008C8000339F2000530F235FF3E031D672C7235FF
:1008D8009100080085315025843184310D248431FC
:1008E8008531AA2584318531D225843185317D250C
:1008F80084318431962484318331372308002000E1
:1009080091100130C5070030C63D00304602053061
:1009180003194502031C0800853132252000C50152
:10092800C6010800F93020009B009A0191102100AF
:10093800911427302000D5000630D6008531472590
:10094800063020009C00080001302000D50000304F
:10095800D6005E088431FF24843100302000DA009C
:10096800DB00DC0185311A25043008000230200044
:10097800D5000030D6005E088431FF248431003071
:100988002000DA00DB00DC0185311A25023008007E
:1009980001302000D5000030D6005E088431FF24E5
:1009A800843100302000DA00DB00DC0185311A25B3
:1009B8000230080002302000D5000030D6005E0862
:1009C8008431FF24843100302000DA00DB00DC01B0
:1009D80085311A25043008008534053480345B34A9
:1009E800033440340034003400340034003400341C
:1009F8000034003400342000D800BC1D080058081A
:100A0800D7005708B7005608B9005508B800BC11F8
:100A1800080020005B08D6005A08D5005C08DD00F5
:100A28005D08D700023083311223080020005B08DC
:100A3800D6005A08D5005C08DD005D08D7000030F4
:100A48008331122308002400951A08009401083005
:100A58009500960127309200951608002100260877
:100A680027040319080027088A0026080A00853188
:100A780008002000BC1C08008531DE258531823144
:100A8800C62285313D2D200056082100A7002000F0
:100A980055082100A600080024009401083095009C
:100AA8009601273092009512080020005608210070
:100AB800A300200055082100A200080020005608C5
:100AC8002100A500200055082100A40008002000EE
:100AD80056082100A100200055082100A0000800A8
:100AE8002000D6005608D5005508FA00F801F80A83
:100AF8000800C0302C0093007C309200C030910078
:100B080008007803031D08007A0885318D25F8014F
:100B180008002000D500111E8F2D550823009A00CB
:100B2800080020003C140314360D8531BC2505301F
:100B3800080020003C1436358531BC2503300800F8
:100B4800640080010131890BA52D00347830210023
:100B5800990022009601080020003C1086310C26DE
:100B6800043008002400160E890C890C013908008D
:100B78002000D500550824009100080020009701A6
:100B880096012130980008002000BC10BB010E30EF
:100B980008002000BC10BB010E30080016302100F0
:100BA8009700080000308331F323080001308331B7
:100BB800F3230800200091190800DE2D8631022653
:100BC80009300800863102260A3008008531FE25E2
:100BD8000530080086310F260030080086311226BD
:100BE80001300800863112260230080086311226AC
:100BF80001300800240096121616080024009616E4
:100C08001616080020009115080024001108080095
:100C180024009615080024001615080024009614D0
:100C2800080024001614080021009111080024006F
:100C38009512080020009111080055340134053040
:080C480008000130080008005B
:020000040001F9
:04000E00E43FFF3F8D
:00000001FF
