:020000040000FA
:040000008031122811
:100008007E1480310B1F10282100911C102820001D
:10001800911C1028843159247E100900803114283D
:10002800853111258031FA00853112258031FB0098
:10003800853113258031EB00F601F701F801F9014C
:10004800203084000030850028308431E724803156
:10005800A0308400003085001D308431E7247E10F4
:1000680020008331FA2B242984318D242000C201F9
:10007800BC01BC0A08008431C62480318030843138
:10008800442480312000DD005D08F804F330843119
:10009800442480312000DD005D08F8047808031D41
:1000A8005C280230DD005D08BC00A401A501080041
:1000B8008431A62408008431C62480310A30200007
:1000C800A4070030A53D00302502C93003192402D9
:1000D80003185C288130843144248031003A031DA0
:1000E800080000308331BE2380312000DD005D0828
:1000F800C00000308331BE2380312000DD005D0860
:10010800BF004008DD00DE015D08A2005E08A30014
:100118000830A235A30D890B8D283F08DD00DE01CC
:100128005D08A2045E08A30401308331BE23803138
:100138002000DD005D08C1008431BD2403302000AB
:10014800DD005D08BC0008008431C62480318030A1
:100158008431442480312000DD005D08F804F53046
:100168008431442480312000DD005D08F8047808DB
:10017800031D5C28A401A5010430DD005D08BC0056
:1001880008008431C62480310A302000A4070030DA
:10019800A53D00302502C9300319240203185C2844
:1001A8008130843144248031003A031D0800003036
:1001B8008331BE2380312000DD005D08BE000030A1
:1001C8008331BE2380312000DD005D08BD003E087C
:1001D800DD00DE015D08A0005E08A1000830A03542
:1001E800A10D890BF3283D08DD00DE015D08A004A0
:1001F8005E08A10401308331BE2380312000DD0078
:100208005D08C1008431BD2405302000DD005D0893
:10021800BC0008008231C82220005508A9005408F3
:10022800A8000630DD005D08BC000800BC01BC0A5F
:100238008231772220005508A7005408A60008003C
:1002480020003C08DD00DE015E08003A03192D2974
:1002580044295D08003A03193828013A03193F2850
:10026800033A03195F28013A0319A828073A031922
:10027800C528013A03190E29033A03191A294429F2
:10028800080020004708DF00E0015F08C800600898
:10029800C9000330CA000030CB008331DE2381312E
:1002A800200049088500480884009C308407843071
:1002B800853D00086A0503197D294708DF00E0012C
:1002C8005F08C8006008C9000330CA000030CB00CE
:1002D8008331DE23813120004908850048088400E5
:1002E8009A3084078430853D013F8A00003F0A0028
:1002F800813101302000DF005F08C7070430470262
:10030800031C0800E901C70180306A060319A829FF
:1003180040306A060319A82920306A060319A8295B
:1003280010306A060319A82908306A060319A82993
:1003380004306A060319A82902306A060319A82995
:100348006A030319A829A7296A36DF005F08EA00AB
:100358006A08031D08008030DF005F08EA00080013
:10036800FF2901302000AC070030AD3D00302D02E0
:10037800653003192C02031CC6290230F4007408E6
:10038800FB00122A0830AA070030AB3D122A0130C0
:100398002000AC070030AD3D01302D022C30031990
:1003A8002C02031CDE290330F4007408FB00AA01A8
:1003B800AB01122A2A082B040319122A00302B0237
:1003C800053003192A02031CDB290430AA02003075
:1003D800AB3B122A01302000AC070030AD3D0130A4
:1003E8002D02913003192C02031C122AAC01AD0115
:1003F800FB01FB0A122A7B08F400F5017508003A94
:100408000319072A122A7408013A0319B529033A6D
:100418000319CB29013A0319EE29122A20002B08C7
:10042800F1002A08F00084312E2408002000170863
:10043800C8004808CC001608C8004808CB004C087B
:10044800170603192F2A1708C8004808CC001608F1
:10045800C8004808CB004C08C800C9014808C900B2
:10046800C80100304805F600FF304905F700760856
:100478004B04F6007708F70034087602C800350800
:10048800773BC90003304902E83003194802031CCE
:1004980008003408E83EB4000330353DB5000130AB
:1004A800BA070030BB3D03303B02E83003193A027B
:1004B800031C642ABA01BB010130B8070030B93DFA
:1004C8000130B6070030B73D003037020A30031953
:1004D8003602031C08006908031D0800B601B701AD
:1004E800E901E90A080020002008C8002108C9001D
:1004F800CA01CB010030CF000030CE007D30CD00E6
:100508000030CC0083314923823120004B08DC00C5
:100518004A08DB004908DA004808D9000030D90742
:100528000030DA3D0030DB3DFA30DC3DDC1FA42A28
:100538000030DC000030DB000030DA000030D90089
:100548000830D600DC37DB0CDA0CD90CD60BA62A1F
:100558000830D600DC37DB0CDA0CD90CD60BAE2A07
:100568005A08D8005908D7006430580201300319D6
:100578005702031CC32A0030D7006430D80058083B
:10058800D5005708D400080020002208C800230816
:10059800C900CA01CB010030CF000030CE00AF3017
:1005A800CD00B830CC0083314923823120004B087C
:1005B800DC004A08DB004908DA004808D90067303F
:1005C800D9076630DA3D2630DB3DF930DC3DDC1FEB
:1005D800F52A0030DC000030DB000030DA000030A3
:1005E800D9000830D600DC37DB0CDA0CD90CD60B76
:1005F800F72A0830D600DC37DB0CDA0CD90CD60B1E
:10060800FF2A5A08D8005908D7005808D5005708B3
:10061800D400080085310B2583312000C7018030C4
:10062800C8004808EA00E901E90ABA01BB01B801B3
:10063800B901B601B7011708C8004808CC00160868
:10064800C8004808CB004C0817060319332B1708B5
:10065800C8004808CC001608C8004808CB004C0859
:10066800C800C9014808C900C80100304805F6009B
:10067800FF304905F70076084B04F6007708F700C5
:100688007708B5007608B400080000302000D300D1
:100698000030D2000030D1000030D000481C5C2B64
:1006A8004C08D0074D08D13D4E08D23D4F08D33DE8
:1006B8000130CC35CD0DCE0DCF0D890B5D2B013022
:1006C800CB36CA0CC90CC80C890B642B4B084A04DE
:1006D80049044804031D522B5308CB005208CA0092
:1006E8005108C9005008C8000800083023009F00BE
:1006F80090309D0024309E00A0309B0001309C006B
:1007080000302000C8000030C9008431FF24833144
:1007180000302000C8000030C9008431F92483313A
:1007280000302000C8000030C900853105252000B0
:10073800C6010800003400340034003400340034AA
:100748000034003400340034003400340034003401
:1007580000340034003400340034003400340034F1
:1007680000340034003400340034003400340034E1
:10077800003400342000C900240096152000911D83
:10078800C22B9111240011082000C8004808CA0093
:100798004908031DD22B24009612D42B2400961648
:1007A80020009111240016162000911DD82B9111BC
:1007B8004A0808002000CC01CD01481CE72B4A0854
:1007C800CC074B08CD3D0130CA35CB0D890BE82B42
:1007D8000130C936C80C890BED2B48084904031DA4
:1007E800E12B4D08C9004C08C800080084317E245C
:1007F800833183310E238331B4302000C8000130A7
:10080800C9008431ED2483318B170B1782311A22EA
:1008180083312000690803190A2C8131452183316D
:100828000A2C22008C018D018E013F3021008C00A2
:1008380070308D009B308E008B3023008E008D0130
:1008480017308C0024008D018C012100951722009F
:100858009D0108007108F3007008F200F336F20CED
:10086800F336F20C72082C00920070080339F2007B
:100878000530F235FF3E031D3D2C7235910008000E
:100888002000C900CA0191114908240091002000E4
:10089800911D4B2C91112400940116084039200019
:1008A800C8004808CA044A0808002000911001300E
:1008B800B0070030B13D0030310205300319300275
:1008C800031C08008431B2242000B001B1010800E3
:1008D800F93020009B009A019110210091141430E6
:1008E8002000C8000530C9008431ED2406302000FE
:1008F8009C0008008431152484318431F324843128
:100908008431CF24843184316C2484318331792338
:1009180008002400940108309500960127309200C1
:10092800951620009111210091150800D734043440
:100938008034373400344034003400340034003418
:10094800003400342000A201A301A001A101C201CA
:10095800C20A0530C8004808BC0008002000670823
:1009680068040319080068088A0067080A008431C7
:10097800080020009111240016152000911DC12C9B
:100988009111080020009111240016142000911DD7
:10099800CA2C91110800C0302C0093007C309200C2
:1009A800C030910008007903031D08007A088431DB
:1009B800DF24F90108002000C800111EE12C4808B6
:1009C80023009A000800640080010131890BE82C9B
:1009D800003420004908E8004808E700080078309B
:1009E8002100990022009601080020004908E4002F
:1009F8004808E300080020004908E6004808E50028
:100A0800080020004908E2004808E100080020002A
:100A18009701960121309800080055340134F334C9
:020A28000800C4
:020000040001F9
:04000E00E43FFF3F8D
:00000001FF
