:020000040000FA
:04000000803117280C
:100008007E1480310B1F15282100911920009119A9
:1000180015282100911C15282000911C15288431D1
:1000280062247E1009008031192885311A25803113
:10003800FA0085311B258031FB0085311C25803174
:10004800EB0085311D258031EC00F601F701F80140
:10005800F901203084000030850028308431F024F4
:100068008031A0308400003085001D308431F024B8
:100078007E1020008431032C2D2984319624200001
:10008800C201BC01BC0A08008431CF248031803011
:1000980084314D2480312000DD005D08F804F33000
:1000A80084314D2480312000DD005D08F804780893
:1000B800031D65280230DD005D08BC00A401A50110
:1000C80008008431AF2408008431CF2480310A30FD
:1000D8002000A4070030A53D00302502C9300319CF
:1000E800240203186528813084314D248031003A78
:1000F800031D080000308331C72380312000DD0054
:100108005D08C00000308331C72380312000DD0046
:100118005D08BF004008DD00DE015D08A2005E0842
:10012800A3000830A235A30D890B96283F08DD00EF
:10013800DE015D08A2045E08A30401308331C723F1
:1001480080312000DD005D08C1008431C624033001
:100158002000DD005D08BC0008008431CF24803118
:10016800803084314D2480312000DD005D08F804A2
:10017800F53084314D2480312000DD005D08F8041D
:100188007808031D6528A401A5010430DD005D0879
:10019800BC0008008431CF2480310A302000A40735
:1001A8000030A53D00302502C93003192402031888
:1001B8006528813084314D248031003A031D0800C0
:1001C80000308331C72380312000DD005D08BE0088
:1001D80000308331C72380312000DD005D08BD0079
:1001E8003E08DD00DE015D08A0005E08A1000830C1
:1001F800A035A10D890BFC283D08DD00DE015D0856
:10020800A0045E08A10401308331C7238031200097
:10021800DD005D08C1008431C62405302000DD0002
:100228005D08BC0008008231D12220005508A900D1
:100238005408A8000630DD005D08BC000800BC01B9
:10024800BC0A8231802220005508A7005408A60065
:10025800080020003C08DD00DE015E08003A0319B2
:1002680036294D295D08003A03194128013A031936
:100278004828033A03196828013A0319B128073AAC
:100288000319CE28013A03191729033A0319232918
:100298004D29080020004708DF00E0015F08C8007A
:1002A8006008C9000330CA000030CB008331E7235F
:1002B800813120004908850048088400A53084075A
:1002C8008430853D00086A05031986294708DF0040
:1002D800E0015F08C8006008C9000330CA000030A8
:1002E800CB008331E7238131200049088500480885
:1002F8008400A33084078430853D013F8A00003F95
:100308000A00813101302000DF005F08C707043090
:100318004702031C0800E901C70180306A06031977
:10032800B12940306A060319B12920306A06031939
:10033800B12910306A060319B12908306A06031971
:10034800B12904306A060319B12902306A06031973
:10035800B1296A030319B129B0296A36DF005F0899
:10036800EA006A08031D08008030DF005F08EA0021
:100378000800082A01302000AC070030AD3D0030ED
:100388002D02653003192C02031CCF290230F4001A
:100398007408FB001B2A0830AA070030AB3D1B2A53
:1003A80001302000AC070030AD3D01302D022C306B
:1003B80003192C02031CE7290330F4007408FB001E
:1003C800AA01AB011B2A2A082B0403191B2A003097
:1003D8002B02053003192A02031CE4290430AA025F
:1003E8000030AB3B1B2A01302000AC070030AD3D8C
:1003F80001302D02913003192C02031C1B2AAC0179
:10040800AD01FB01FB0A1B2A7B08F400F501750806
:10041800003A0319102A1B2A7408013A0319BE2945
:10042800033A0319D429013A0319F7291B2A200092
:100438002B08F1002A08F000843137240800200036
:100448001708C8004808CC001608C8004808CB00A0
:100458004C0817060319382A1708C8004808CC00A2
:100468001608C8004808CB004C08C800C90148084D
:10047800C900C80100304805F600FF304905F700FB
:1004880076084B04F6007708F70034087602C800AF
:100498003508773BC90003304902E83003194802A0
:1004A800031C08003408E83EB4000330353DB500AD
:1004B8000130BA070030BB3D03303B02E830031976
:1004C8003A02031C6D2ABA01BB010130B80700309B
:1004D800B93D0130B6070030B73D003037020A3069
:1004E80003193602031C08006908031D0800B60139
:1004F800B701E901E90A080020002008C80021081E
:10050800C900CA01CB010030CF000030CE007D30D9
:10051800CD000030CC0083315223823120004B08BB
:10052800DC004A08DB004908DA004808D900003036
:10053800D9070030DA3D0030DB3DFA30DC3DDC1F06
:10054800AD2A0030DC000030DB000030DA0000307B
:10055800D9000830D600DC37DB0CDA0CD90CD60B06
:10056800AF2A0830D600DC37DB0CDA0CD90CD60BF6
:10057800B72A5A08D8005908D70064305802013001
:1005880003195702031CCC2A0030D7006430D80066
:100598005808D5005708D400080020002208C800D1
:1005A8002308C900CA01CB010030CF000030CE00BB
:1005B800AF30CD00B830CC008331522382312000D7
:1005C8004B08DC004A08DB004908DA004808D90073
:1005D8006730D9076630DA3D2630DB3DF930DC3D3F
:1005E800DC1FFE2A0030DC000030DB000030DA00BF
:1005F8000030D9000830D600DC37DB0CDA0CD90C17
:10060800D60B002B0830D600DC37DB0CDA0CD90C03
:10061800D60B082B5A08D8005908D7005808D50017
:100628005708D40008008531142583312000C701FC
:100638008030C8004808EA00E901E90ABA01BB01AC
:10064800B801B901B601B7011708C8004808CC00BD
:100658001608C8004808CB004C08170603193C2B9D
:100668001708C8004808CC001608C8004808CB007E
:100678004C08C800C9014808C900C801003048052D
:10068800F600FF304905F70076084B04F6007708B6
:10069800F7007708B5007608B4000800003020009D
:1006A800D3000030D2000030D1000030D000481C08
:1006B800652B4C08D0074D08D13D4E08D23D4F0858
:1006C800D33D0130CC35CD0DCE0DCF0D890B662B2A
:1006D8000130CB36CA0CC90CC80C890B6D2B4B08E2
:1006E8004A0449044804031D5B2B5308CB005208F5
:1006F800CA005108C9005008C80008000830230083
:100708009F0090309D0024309E00A0309B00013057
:100718009C0000302000C8000030C9008531082541
:10072800833100302000C8000030C900853102251F
:10073800833100302000C8000030C90085310E2503
:100748002000C601080000340034003400340034AE
:1007580000340034003400340034003400340034F1
:1007680000340034003400340034003400340034E1
:1007780000340034003400340034003400340034D1
:100788000034003400342000C900240096152000ED
:10079800911DCB2B9111240011082000C800480896
:1007A800CA004908031DDB2B24009612DD2B240008
:1007B800961620009111240016162000911DE12B99
:1007C80091114A0808002000CC01CD01481CF02BEB
:1007D8004A08CC074B08CD3D0130CA35CB0D890BF3
:1007E800F12B0130C936C80C890BF62B480849048F
:1007F800031DEA2B4D08C9004C08C80008008431C5
:1008080087248431833117238431BD302000C80008
:100818000130C9008431F62484318B170B178231DB
:1008280023228431200069080319132C81314E21B9
:100838008431132C22008C018D018E013F30210060
:100848008C0070308D009B308E008B3023008E0022
:100858008D0117308C0024008D018C012100951723
:1008680022009D0108007108F3007008F200F336B9
:10087800F20CF336F20C72082C009200700803395F
:10088800F2000530F235FF3E031D462C723591000B
:1008980008002000C900CA019111490824009100EC
:1008A8002000911D542C9111240094011608403900
:1008B8002000C8004808CA044A080800200091100F
:1008C8000130B0070030B13D003031020530031966
:1008D8003002031C08008431BB242000B001B101A0
:1008E8000800F93020009B009A0191102100911412
:1008F8001E302000C8000530C9008431F6240630B7
:1009080020009C00080084311E2484318431FC249A
:1009180084318431D82484318431752484318331FD
:10092800822308002400940108309500960127309E
:100938009200951620009111210091150800E034CD
:1009480004348034403400344034003400340034FB
:100958000034003400342000A201A301A001A10149
:10096800C201C20A0530C8004808BC0008002000BF
:10097800670868040319080068088A0067080A00FD
:100988008431080020009111240016152000911DC3
:10099800CA2C91110800200091112400161420007F
:1009A800911DD32C91110800C0302C0093007C308D
:1009B8009200C030910008007903031D08007A08EE
:1009C8008431E824F90108002000C800111EEA2C2F
:1009D800480823009A000800640080010131890B4F
:1009E800F12C003420004908E8004808E700080016
:1009F800783021009900220096010800200049085B
:100A0800E4004808E300080020004908E600480818
:100A1800E500080020004908E2004808E100080055
:100A280020009701960121309800080055340134C0
:060A38008034F3340800D5
:020000040001F9
:04000E00E43FFF3F8D
:00000001FF
