:020000040000FA
:040000008031122811
:100008007E1480310B1F10282100911C102820001D
:10001800911C1028823158227E1009008031142842
:100028008231F2228031FA008231F3228031FB00E2
:10003800F601F701F801F90120308400003085004D
:100048002E308231C4227E1020008131F92920000F
:100058004D08DE00DF015E08D8005F08D9000330D4
:10006800DA000030DB008131DD21803120005908C1
:100078008500580884008C3084078230853D00084C
:100088005705031963284D08DE00DF015E08D80014
:100098005F08D9000330DA000030DB008131DD2150
:1000A8008031200059088500580884008A30840768
:1000B8008230853D013F8A00003F0A0080310130CF
:1000C8002000DE005E08CD0704304D02031C080046
:1000D800D601CD018030570603198E2840305706C7
:1000E80003198E282030570603198E28103057061A
:1000F80003198E280830570603198E28043057062E
:1001080003198E280230570603198E28570303193E
:100118008E288D285736DE005E08D7005708031D45
:1001280008008030DE005E08D7000800E5280130AE
:10013800F6070030F73D0030770265300319760284
:10014800031CAB280230F4007408FB00F8280830C0
:100158002000BD070030BE3DF8280130F60700300A
:10016800F73D013077022C3003197602031CC428AE
:100178000330F4007408FB002000BD01BE01F8281C
:1001880020003D083E040319F82800303E020530DF
:1001980003193D02031CC0280430BD020030BE3BD9
:1001A800F8280130F6070030F73D0130770291302A
:1001B80003197602031CF828F601F701FB01FB0A74
:1001C800F8287B08F400F5017508003A0319ED28B2
:1001D800F8287408013A03199B28033A0319B1282F
:1001E800013A0319D528F82820003E08F1003D08F7
:1001F800F00082312D22080020001708D800580886
:10020800DC001608D8005808DB005C08170603193C
:1002180015291708D8005808DC001608D80058080F
:10022800DB005C08D800D9015808D900D801003093
:100238005805F800FF305905F90078085B04F80004
:100248007908F90041087802D8004208793BD900BA
:1002580003305902E83003195802031C080041080A
:10026800E83EC1000330423DC2000130C7070030FC
:10027800C83D03304802E83003194702031C4A29E5
:10028800C701C8010130C5070030C63D0130C307AA
:100298000030C43D003044020A3003194302031CF5
:1002A80008005608031D0800C301C401D601D60A78
:1002B80008008231E82281312000CD018030D80049
:1002C8005808D700D601D60AC701C801C501C6011A
:1002D800C301C4011708D8005808DC001608D80064
:1002E8005808DB005C081706031982291708D8008C
:1002F8005808DC001608D8005808DB005C08D8004D
:10030800D9015808D900D80100305805F800FF3045
:100318005905F90078085B04F8007908F9007908AC
:10032800C2007808C1000800083023009F00903000
:100338009D0024309E00A0309B0001309C000030BE
:100348002000D8000030D9008231DC228131003011
:100358002000D8000030D9008231D6228131003007
:100368002000D8000030D9008231E2222000CC01E0
:100378000800003400340034003400340034003401
:1003880000340034003400340034003400340034C5
:1003980000340034003400340034003400340034B5
:1003A80000340034003400340034003400340034A5
:1003B80000342000DC01DD01581CE6295A08DC075E
:1003C8005B08DD3D0130DA35DB0D890BE7290130AB
:1003D800D936D80C890BEC2958085904031DE02993
:1003E8005D08D9005C08D8000800823143228131B9
:1003F80081315D2181319A302000D8000030D90048
:100408008231CA2281318B170B178131002181314A
:10041800200056080319092A80312B208131092A26
:1004280022008C018D018E013F3021008C0070303C
:100438008D009B308E008B3023008E008D0117308D
:100448008C0024008D018C012100951722009D014C
:1004580008007108F3007008F200F336F20CF33666
:10046800F20C72082C00920070080339F200053073
:10047800F235FF3E031D3C2A723591000800823197
:10048800AB2282318231142282318231D0228231F0
:100498008231EE2282318231B422823182316B2262
:1004A8008231813198210800200091100130BF0766
:1004B8000030C03D00304002053003193F02031CE4
:1004C8000800823196222000BF01C0010800F930DF
:1004D80020009B009A01911021009114F430200013
:1004E800D8000230D9008231CA22063020009C0090
:1004F80008002000D801111E872A23009E1E872A83
:100508002000D801D80A200058080800A134023475
:1005180080340034003400340034003400340034B3
:100528000034003420005408550403190800550805
:100538008A0054080A008231080082317D22823103
:10054800003A031908007A088231BC220800240006
:100558009401083095009601273092009512080002
:10056800C0302C0093007C309200C030910008000D
:100578002000D800111EBE2A580823009A0008003F
:10058800640080010131890BC52A00342000590814
:10059800D5005808D40008007830210099002200BE
:1005A8009601080020005908D1005808D00008001A
:1005B80020005908D3005808D20008002000590824
:1005C800CF005808CE00080020009701960121307E
:1005D80098000800163021009700080055340134AF
:0205E800080009
:020000040001F9
:04000E00E43FFF3F8D
:00000001FF
