:020000040000FA
:040000008031122811
:100008007E1480310B1F10282100911C102820001D
:10001800911C102882318F227E100900803114280B
:1000280083313C238031FA0083313D238031FB004A
:10003800F601F701F801F90120308400003085004D
:10004800333083310B237E1020008231302A200088
:100058005208E300E4016308DD006408DE000330B1
:10006800DF000030E00082311422803120005E0879
:1000780085005D088400B63084078230853D00081D
:100088005C05031963285208E300E4016308DD00F6
:100098006408DE000330DF000030E0008231142203
:1000A800803120005E0885005D088400B430840734
:1000B8008230853D013F8A00003F0A0080310130CF
:1000C8002000E3006308D20705305202031C080031
:1000D800DB01D20180305C0603198E2840305C06B3
:1000E80003198E2820305C0603198E2810305C0610
:1000F80003198E2808305C0603198E2804305C0624
:1001080003198E2802305C0603198E285C03031934
:100118008E288D285C36E3006308DC005C08031D2C
:1001280008008030E3006308DC000800E52801309F
:100138002000C3070030C43D003044026530031975
:100148004302031CAC280230F4007408FB00F828B2
:100158000830C1070030C23DF82801302000C3072D
:100168000030C43D013044022C3003194302031C03
:10017800C4280330F4007408FB00C101C201F82848
:10018800410842040319F8280030420205300319D7
:100198004102031CC1280430C1020030C23BF828C8
:1001A80001302000C3070030C43D013044029130C3
:1001B80003194302031CF828C301C401FB01FB0A0D
:1001C800F8287B08F400F5017508003A0319ED28B2
:1001D800F8287408013A03199B28033A0319B1282F
:1001E800013A0319D428F82820004208F1004108F0
:1001F800F00082316422080020001708DD005D0845
:10020800E1001608DD005D08E00061081706031923
:1002180015291708DD005D08E1001608DD005D08F6
:10022800E0006108DD00DE015D08DE00DD01003070
:100238005D05F600FF305E05F70076086004F600FD
:100248007708F70047087602DD004808773BDE00AC
:1002580003305E02E83003195D02031C08004708FA
:10026800E83EC7000330483DC8000130CD070030E4
:10027800CE3D03304E02E83003194D02031C4A29D3
:10028800CD01CE010130CB070030CC3D0130C9078C
:100298000030CA3D00304A020A3003194902031CE3
:1002A80008005B08031D0800C901CA01DB01DB0A5D
:1002B800080083312F2381312000D2018030DD00F6
:1002C8005D08DC00DB01DB0ACD01CE01CB01CC01EE
:1002D800C901CA011708DD005D08E1001608DD0044
:1002E8005D08E00061081706031982291708DD0078
:1002F8005D08E1001608DD005D08E0006108DD002A
:10030800DE015D08DE00DD0100305D05F600FF302E
:100318005E05F70076086004F6007708F7007708AE
:10032800C8007608C70008002000DE00DF01DF0AE9
:100338003C19CE295E08DD005D08B600BC103C15EE
:100348003C100E30DD005D08BA00F430B400013016
:10035800B500BC150030A0000030A100AC01003091
:10036800A2000030A300AD010030A4000030A500B9
:10037800AE010030A6000030A700AF010030A80091
:100388000030A900B0018331392381318231C32281
:100398002000DF015F080800083023009F0090302C
:1003A8009D0024309E00A0309B0001309C0000304E
:1003B8002000DD000030DE0083312323813100304E
:1003C8002000DD000030DE0083311D238131003044
:1003D8002000DD000030DE0083312923F901080008
:1003E8000034003400340034003400340034003465
:1003F8000034003400340034003400340034003455
:100408000034003400340034003400340034003444
:100418000034003400340034003400340034003434
:100428002000E101E2015D1C1D2A5F08E107600868
:10043800E23D0130DF35E00D890B1E2A0130DE3642
:10044800DD0C890B232A5D085E04031D172A620848
:10045800DE006108DD00080082317A2282318131B4
:100468005D2182319A302000DD000030DE008331CA
:10047800112382318B170B17813100218231200023
:100488005B080319402A80312B208231402A220040
:100498008C018D018E013F3021008C0070308D0061
:1004A8009B308E008B3023008E008D0117308C001E
:1004B80024008D018C012100951722009D01080060
:1004C8007108F3007008F200F336F20CF336F20C00
:1004D80072082C00920070080339F2000530F235DA
:1004E800FF3E031D732A7235910008008231D9221C
:1004F800823182314B228231833117238231833119
:10050800352382318231EB2282318231A22282313B
:100518008131D0210800200091100130C50700303A
:10052800C63D00304602053003194502031C080089
:100538008231CE222000C501C6010800F930200012
:100548009B009A019110210091143E302000DD009B
:100558000330DE0083311123063020009C000800A0
:10056800FB3402348034F334023440340034003431
:1005780000340034003400340034003400342400E3
:10058800951A0800940108309500960127309200CA
:1005980095160800200059085A04031908005A083B
:1005A8008A0059080A0082310800240094010830A2
:1005B8009500960127309200951208002000DE0071
:1005C8005E08DD005D08FA00F801F80A0800C0308E
:1005D8002C0093007C309200C030910008008030DD
:1005E80081319821823143308231E2220800780338
:1005F800031D08007A0883310323F801080020004E
:10060800DD00111E052B5D0823009A000800640018
:1006180080010131890B0C2B003420005E08DA00C0
:100628005D08D90008007830210099002200960161
:10063800080020005E08D6005D08D50008002000EC
:100648005E08D8005D08D700080020005E08D400C6
:100658005D08D3000800200097019601213098001A
:1006680008001630210097000800200091110800AA
:06067800553401340800B6
:020000040001F9
:04000E00E43FFF3F8D
:00000001FF
